:1000000000000020FD040000AF550000B5550000C1
:10001000BB550000C1550000C7550000000000009E
:100020000000000000000000000000006D0500005E
:10003000CD5500000000000013060000730600000C
:100040006D5400007B540000895400009754000058
:10005000A5540000B3540000C1540000CF54000068
:10006000DD540000EB540000F95400000755000077
:100070001555000023550000315500003F55000084
:100080004D550000D3550000D9550000DF55000044
:10009000E5550000EB550000F1550000F755000054
:1000A000FD55000003560000095600000F560000E1
:1000B000155600001B560000215600005B5500003D
:1000C00027560000695500002D56000077550000A6
:1000D0003356000085550000395600003F56000099
:1000E000455600004B560000515600005756000080
:1000F0005D56000063560000695600006F56000010
:100100000D0500000D0500000D0500000D050000A7
:10011000755600007B56000081560000875600008F
:100120008D56000093560000995600009F5600001F
:10013000A5560000AB560000B1560000B7560000AF
:10014000BD560000C356000093550000C95600007C
:10015000A1550000CF560000D5560000DB56000028
:10016000E1560000E7560000ED560000F35600008F
:10017000F9560000FF560000055700000B5700001D
:10018000115700000D0500000D0500000D050000D1
:100190000D0500000D0500000D0500000D05000017
:1001A0000D0500000D0500000D0500000D05000007
:1001B0000D0500000D0500000D0500000D050000F7
:1001C0000D0500000D0500000D0500000D050000E7
:1003F0000D0500000D0500000D050000FFFFFFFFCB
:10040000FFFFFFFFFFFFFFFFFFFFFFFFFEFFFFFFFD
:1004400010B5054C237833B9044B13B10448AFF30E
:1004500000800123237010BD580E00200000000012
:10046000E0DB000008B5034B1BB103490348AFF3C1
:10047000008008BD000000005C0E0020E0DB0000F2
:10048000A3F5803A704700BF174B002B08BF134BF2
:100490009D46FFF7F5FF00218B460F461348144A8F
:1004A000121A0AF073F80E4B002B00D098470D4B30
:1004B000002B00D098470020002104000D000D48BB
:1004C000002802D00C4809F03DFD09F081FD200014
:1004D000290003F003F809F041FD00BF0000080007
:1004E000000000004D59000000000020580E0020C0
:1004F00068560020459F00007D9F000072B604F002
:10050000CDFB04F063FB62B6FFF7BEFFFFF7FEBF53
:1005100080F309887047EFF309807047684680F3DD
:1005200009885A480078C00714BF0220032080F3CE
:1005300014887047DFF858C1EFF305831B0618BF16
:100540006047EFF31483DB0708BF604700DF7047A5
:10055000DFF840C1EFF305831B0618BF6047EFF3D8
:100560001483DB0708BF604700DF7047EFF30980A3
:10057000816911F8021CE1BB90E80F1010B5E0474B
:10058000BDE81040EFF3098C8CE80700424B93E87C
:100590000600914208BF704741B91EF0100F16D1F6
:1005A0003E49086820F00100086010E01EF0100FBE
:1005B00006BF2CED108A0120002081F825002CE9CF
:1005C000F00FC1F828C00CB406F058FE0CBC1A603D
:1005D000D2F828C0BCE8F00F92F8250000280EBF22
:1005E0006FF0020E6FF0120EBCEC108A8CF30988CB
:1005F000704710B52A4A1268914209D8294C54F81C
:10060000214090E80F10A047EFF3098C8CE80F0011
:1006100010BD10B506F0A4FDBDE810401E4B93E8D8
:100620000600914208BF7047EFF3098C1EF0100FCF
:1006300006BF2CED108A0120002081F825002CE94E
:10064000F00FC1F828C00CB406F018FE0CBC1A60FC
:10065000D2F828C0BCE8F00F92F8250000280EBFA1
:100660006FF0020E6FF0120EBCEC108A8CF309884A
:10067000704710B506F0E4FDFFF7CEBF10B506F0E9
:10068000DDFD06F0DDFDFFF7C7BF00009CCD0000DB
:10069000ED6A0000096B00000456002034EF00E012
:1006A00000000000FCFFFFFF81F0004102E000BFFE
:1006B00083F0004330B54FEA41044FEA430594EA22
:1006C000050F08BF90EA020F1FBF54EA000C55EA5D
:1006D000020C7FEA645C7FEA655C00F0E2804FEA2E
:1006E0005454D4EB5555B8BF6D420CDD2C4480EA10
:1006F000020281EA030382EA000083EA010180EA40
:10070000020281EA0303362D88BF30BD11F0004F8D
:100710004FEA01314FF4801C4CEA113102D04042C3
:1007200061EB410113F0004F4FEA03334CEA1333FE
:1007300002D0524263EB430394EA050F00F0A78016
:10074000A4F10104D5F1200E0DDB02FA0EFC22FA11
:1007500005F2801841F1000103FA0EF2801843FA05
:1007600005F359410EE0A5F120050EF1200E012AF6
:1007700003FA0EFC28BF4CF0020C43FA05F3C01834
:1007800051EBE37101F0004507D54FF0000EDCF1AD
:10079000000C7EEB00006EEB0101B1F5801F1BD356
:1007A000B1F5001F0CD349085FEA30004FEA3C0C5A
:1007B00004F101044FEA445212F5800F80F09A8050
:1007C000BCF1004F08BF5FEA500C50F1000041EB54
:1007D000045141EA050130BD5FEA4C0C404141EB58
:1007E0000101013C28BFB1F5801FE9D291F0000F53
:1007F00004BF01460020B1FA81F308BF2033A3F102
:100800000B03B3F120020CDA0C3208DD02F1140CF8
:10081000C2F10C0201FA0CF021FA02F10CE002F133
:100820001402D8BFC2F1200C01FA02F120FA0CFC2C
:10083000DCBF41EA0C019040E41AA2BF01EB045175
:10084000294330BD6FEA04041F3C1CDA0C340EDC73
:1008500004F11404C4F1200220FA04F001FA02F3B6
:1008600040EA030021FA04F345EA030130BDC4F174
:100870000C04C4F1200220FA02F001FA04F340EA69
:100880000300294630BD21FA04F0294630BD94F01A
:10089000000F83F4801306BF81F480110134013D01
:1008A0004EE77FEA645C18BF7FEA655C29D094EA72
:1008B000050F08BF90EA020F05D054EA000C04BFF0
:1008C0001946104630BD91EA030F1EBF00210020DB
:1008D00030BD5FEA545C05D14000494128BF41F07A
:1008E000004130BD14F580043CBF01F5801130BDDE
:1008F00001F0004545F0FE4141F470014FF0000069
:1009000030BD7FEA645C1ABF194610467FEA655C19
:100910001CBF0B46024650EA013406BF52EA0335BB
:1009200091EA030F41F4002130BD00BF90F0000FA9
:1009300004BF0021704730B54FF4806404F13204E5
:100940004FF000054FF0000150E700BF90F0000F9E
:1009500004BF0021704730B54FF4806404F13204C5
:1009600010F0004548BF40424FF000013EE700BF95
:1009700042004FEAE2014FEA31014FEA02701FBF25
:1009800012F07F4393F07F4F81F06051704732F057
:100990007F4208BF704793F07F4F04BF41F40021AE
:1009A000704730B54FF4607401F0004521F000410C
:1009B0001CE700BF50EA010208BF704730B54FF096
:1009C00000050AE050EA010208BF704730B511F097
:1009D000004502D5404261EB41014FF4806404F1CF
:1009E00032045FEA915C3FF4D8AE4FF003025FEA55
:1009F000DC0C18BF03325FEADC0C18BF033202EBD9
:100A0000DC02C2F1200300FA03FC20FA02F001FA32
:100A100003FE40EA0E0021FA02F11444BDE600BFD5
:100A200070B54FF0FF0C4CF4E06C1CEA11541DBF84
:100A30001CEA135594EA0C0F95EA0C0F00F0DEF84F
:100A40002C4481EA030621EA4C5123EA4C5350EA34
:100A5000013518BF52EA033541F4801143F4801385
:100A600038D0A0FB02CE4FF00005E1FB02E506F016
:100A70000042E0FB03E54FF00006E1FB03569CF06B
:100A8000000F18BF4EF0010EA4F1FF04B6F5007F71
:100A900064F5407404D25FEA4E0E6D4146EB0606E3
:100AA00042EAC62141EA55514FEAC52040EA5E506C
:100AB0004FEACE2EB4F1FD0C88BFBCF5E06F1ED816
:100AC000BEF1004F08BF5FEA500E50F1000041EB4D
:100AD000045170BD06F0004646EA010140EA0200FA
:100AE00081EA0301B4EB5C04C2BFD4EB0C0541EA1C
:100AF000045170BD41F480114FF0000E013C00F331
:100B0000AB8014F1360FDEBF002001F0004170BD54
:100B1000C4F10004203C35DA0C341BDC04F114046D
:100B2000C4F1200500FA05F320FA04F001FA05F2F9
:100B300040EA020001F0004221F0004110EBD370C6
:100B400021FA04F642EB06015EEA430E08BF20EAF2
:100B5000D37070BDC4F10C04C4F1200500FA04F395
:100B600020FA05F001FA04F240EA020001F0004127
:100B700010EBD37041F100015EEA430E08BF20EA9A
:100B8000D37070BDC4F1200500FA05F24EEA020EE2
:100B900020FA04F301FA05F243EA020321FA04F011
:100BA00001F0004121FA04F220EA020000EBD370C8
:100BB0005EEA430E08BF20EAD37070BD94F0000FC8
:100BC0000FD101F00046400041EB010111F4801FFC
:100BD00008BF013CF7D041EA060195F0000F18BFAD
:100BE000704703F00046520043EB030313F4801FE9
:100BF00008BF013DF7D043EA0603704794EA0C0FA3
:100C00000CEA135518BF95EA0C0F0CD050EA4106B8
:100C100018BF52EA4306D1D181EA030101F0004135
:100C20004FF0000070BD50EA410606BF104619465D
:100C300052EA430619D094EA0C0F02D150EA013669
:100C400013D195EA0C0F05D152EA03361CBF1046AA
:100C500019460AD181EA030101F0004141F0FE4149
:100C600041F470014FF0000070BD41F0FE4141F4CD
:100C7000780170BD70B54FF0FF0C4CF4E06C1CEACD
:100C800011541DBF1CEA135594EA0C0F95EA0C0F82
:100C900000F0A7F8A4EB050481EA030E52EA03353D
:100CA0004FEA013100F088804FEA03334FF080555E
:100CB00045EA131343EA12634FEA022245EA11158B
:100CC00045EA10654FEA00260EF000419D4208BF3C
:100CD000964244F1FD0404F5407402D25B084FEAE9
:100CE0003202B61A65EB03055B084FEA32024FF495
:100CF00080104FF4002CB6EB020E75EB030E22BFF2
:100D0000B61A754640EA0C005B084FEA3202B6EBB1
:100D1000020E75EB030E22BFB61A754640EA5C0060
:100D20005B084FEA3202B6EB020E75EB030E22BFF0
:100D3000B61A754640EA9C005B084FEA3202B6EBF1
:100D4000020E75EB030E22BFB61A754640EADC00B0
:100D500055EA060E18D04FEA051545EA16754FEA12
:100D600006164FEAC30343EA52734FEAC2025FEA30
:100D70001C1CC0D111F4801F0BD141EA00014FF0BF
:100D800000004FF0004CB6E711F4801F04BF014390
:100D90000020B4F1FD0C88BFBCF5E06F3FF6AFAEAC
:100DA000B5EB030C04BFB6EB020C5FEA500C50F13C
:100DB000000041EB045170BD0EF0004E4EEA1131BF
:100DC00014EB5C04C2BFD4EB0C0541EA045170BDC6
:100DD00041F480114FF0000E013C90E645EA060E0A
:100DE0008DE60CEA135594EA0C0F08BF95EA0C0F38
:100DF0003FF43BAF94EA0C0F0AD150EA01347FF480
:100E000034AF95EA0C0F7FF425AF104619462CE756
:100E100095EA0C0F06D152EA03353FF4FDAE1046B9
:100E2000194622E750EA410618BF52EA43067FF40A
:100E3000C5AE50EA41047FF40DAF52EA43057FF49A
:100E4000EBAE12E74FF0FF3C06E000BF4FF0010CA5
:100E500002E000BF4FF0010C4DF804CD4FEA410C09
:100E60007FEA6C5C4FEA430C18BF7FEA6C5C1BD0D6
:100E700001B050EA410C0CBF52EA430C91EA030F57
:100E800002BF90EA020F0020704710F1000F91EAB4
:100E9000030F58BF994208BF90422CBFD8176FEA82
:100EA000E37040F0010070474FEA410C7FEA6C5C50
:100EB00002D150EA013C07D14FEA430C7FEA6C5C57
:100EC000D6D152EA033CD3D05DF8040B704700BF83
:100ED0008446104662468C461946634600E000BFD1
:100EE00001B5FFF7B7FF002848BF10F1000F01BDA3
:100EF0004DF808EDFFF7F4FF0CBF012000205DF86E
:100F000008FB00BF4DF808EDFFF7EAFF34BF0120F2
:100F100000205DF808FB00BF4DF808EDFFF7E0FF8B
:100F200094BF012000205DF808FB00BF4DF808EDDC
:100F3000FFF7CEFF94BF012000205DF808FB00BF43
:100F40004DF808EDFFF7C4FF34BF012000205DF825
:100F500008FB00BF4FEA410C7FEA6C5C02D150EA0B
:100F6000013C0AD14FEA430C7FEA6C5C02D152EAA1
:100F7000033C02D14FF0000070474FF00100704772
:100F80004A0011D212F5001211D20DD56FF4787308
:100F9000B3EB62520ED44FEAC12343F0004343EA5D
:100FA000505323FA02F070474FF00000704750EAA8
:100FB000013002D14FF0FF3070474FF00000704712
:100FC0004FEA4102B2F1E04324BFB3F5001CDCF16B
:100FD000FE5C0DD901F0004C4FEAC0024CEA5070A3
:100FE000B2F1004F40EB830008BF20F001007047D2
:100FF00011F0804F21D113F13872BCBF01F00040D5
:10100000704741F480114FEA5252C2F11802C2F106
:10101000200C10FA0CF320FA02F018BF40F0010087
:101020004FEAC1234FEAD32303FA0CFC40EA0C0039
:1010300023FA02F34FEA4303CCE77FEA625307D176
:1010400050EA01331EBF4FF0FE4040F440007047AD
:1010500001F0004040F0FE4040F40000704700BF47
:1010600053B94AB9002908BF00281CBF4FF0FF310F
:101070004FF0FF3001F0C0B8ADF1080C6DE904CEBF
:1010800000F006F8DDF804E0DDE9022304B0704763
:101090002DE9F047089D04468C46002B40F08380E4
:1010A0008A42174647D9B2FA82F242B1C2F1200011
:1010B00024FA00F09140974040EA010C94404FEA36
:1010C0001748230CBCFBF8F61FFA87FE08FB16C175
:1010D00043EA014306FB0EF1994209D9FB1806F1D8
:1010E000FF3080F01981994240F21681023E3B4464
:1010F0005B1AA4B2B3FBF8F008FB103344EA0344D4
:1011000000FB0EFEA64509D93C1900F1FF3380F023
:101110000581A64540F2028102383C4440EA06407F
:10112000A4EB0E0400261DB1D4400023C5E9004302
:101130003146BDE8F08702B9FFDEB2FA82F2002A3A
:1011400050D1CB1B4FEA174E1FFA87F80126B3FB8D
:10115000FEFC210C0EFB1C3341EA034108FB0CF39F
:101160008B4207D979180CF1FF3002D28B4200F282
:10117000E9808446C91AA3B2B1FBFEF00EFB101140
:1011800043EA014408FB00F8A04507D93C1900F1E7
:10119000FF3302D2A04500F2D9801846A4EB080420
:1011A00040EA0C40BFE78B4209D9002D00F0B18026
:1011B0000026C5E9000130463146BDE8F087B3FAA4
:1011C00083F6002E4AD18B4202D3824200F2B880CD
:1011D000841A61EB030101208C46002DA8D0C5E9DB
:1011E000004CA5E7C2F1200320FA03F6974001FA6C
:1011F00002F04FEA174ED9403043030CB1FBFEF624
:101200001FFA87F80EFB161143EA014306FB08F1AB
:10121000994204FA02F409D9FB1806F1FF3C80F068
:101220008D80994240F28A80023E3B445B1A81B233
:10123000B3FBFEF00EFB103341EA034100FB08F361
:101240008B4207D9791800F1FF3C73D28B4271D9D8
:1012500002383944CB1A40EA064678E7C6F1200C3A
:1012600003FA06F422FA0CF31C4320FA0CF701FAF5
:1012700006F34FEA144E21FA0CF11F433B0CB1FB6D
:10128000FEF91FFA84F80EFB191143EA014109FB2C
:1012900008FA8A4502FA06F200FA06F308D961183C
:1012A00009F1FF3048D28A4546D9A9F10209214403
:1012B000A1EB0A01BFB2B1FBFEF00EFB101147EA31
:1012C000014700FB08F8B84507D9E71900F1FF31DD
:1012D0002ED2B8452CD90238274440EA0940A7EB62
:1012E0000807A0FB02894F45C64649461AD317D0C6
:1012F0005DB1B3EB0E0267EB010707FA0CFCF2409D
:101300004CEA0202F740C5E9002700263146BDE855
:10131000F0872E4628460BE70646E9E61846FDE626
:101320004345E5D2B8EB020E69EB04010138DFE773
:101330000846D2E760468DE78146B9E7664675E71D
:1013400030464AE7ACF1020C394413E702383C441A
:1013500024E700BF03685A004CBF43F0004323F06A
:1013600000431844704700BF2DE9F84329B34F1ECE
:10137000044615463E464FF0000808EB060101EB17
:10138000D171491004EBC1094846FFF7E3FF03465A
:10139000C80008308F42204409D0AB4209D8FFF77B
:1013A000D9FF0138A8420AD201F10108E5E7AB42B2
:1013B00005D9884501D04E1EDFE74FF000094846A9
:1013C000BDE8F883012807D0022807D0044B002885
:1013D0000CBF18460020704702487047024870470B
:1013E000891A00008D1A0000911A000030B5234BB5
:1013F00083B004468D1E3BB301A92846AFF300809D
:10140000E8B101992A46FFF7AFFF0146B8B1FFF7EF
:10141000A1FF4B68A064012B2BD0002B01F104002D
:1014200023DBFFF797FF0023C4E913030368002BB6
:1014300010DBFFF78FFF2061002003B030BD0023D9
:101440000920236103B030BD0D490E48091AC910A7
:101450000191D7E7C3F30360FFF7B4FF00282061D1
:1014600014BF0020092003B030BD0123C4E91303D9
:10147000DCE7002323610520DFE700BF0000000058
:1014800068E1000050DE00000368DA0710B504468A
:1014900006D49B0700F1480009D500F04BFC2368F7
:1014A000590709D51A070ED5DB0613D510BD00F074
:1014B00039FC23685907F5D404F1D00000F042FC50
:1014C00023681A07F0D404F5A87000F043FC2368E1
:1014D000DB06EBD404F5E870BDE8104000F07EBCFC
:1014E0000346006800B11844704700BF09207047E8
:1014F000704700BF70B504460E46316C2046FFF7BA
:1015000075FF054688B9336C63613246236921460D
:10151000012098470828F0D0072806D12846316CCA
:10152000FFF7E6FF301D00F0F1FB08F0E5FC00BF1F
:101530002DE9F0470D1D064614460FCDADF5727D21
:101540000DF10C0CACE80F000FCDACE80F000FCD87
:10155000ACE80F0095E80F0002ADF768D6F81880E8
:101560008CE80F0000232B6021E02B6C73614FF49B
:10157000F07229467AA800F041FE33697AAA314612
:1015800050469847889BCDE9005821466B648146B8
:10159000334632460120B8470446E8B94FF4F072AA
:1015A0007AA9284600F02AFEB9F1080F1BD1296C50
:1015B0003046FFF71BFF09345FFA84FA81460028A2
:1015C000D3D0AB6B4AF01001CDE9005832466B64C2
:1015D00001203346B84708B14FF0090948460DF5D8
:1015E000727DBDE8F087B9F1070FF5D12046296C6F
:1015F000FFF77EFF03A800F089FB00BF406C704737
:10160000F0B5CB6B0B640E1D0F4605460FCEF9B03F
:1016100001AC0FC40FCE0FC40FCE0FC496E80F005D
:101620004FF0FF3684E80F00009606E02B696A460B
:10163000294698470828044608D110992846FFF7FC
:10164000D5FE0028F2D0092079B0F0BD6846FFF73A
:101650001BFF062CF7D139462846FFF74BFF00BF8A
:1016600030B4DD6BC160826119461D64002230BC5C
:101670005EE700BF70B5C66843690B64AEB9036925
:101680000A4604460D46014602209847072805D021
:1016900008280FD129462046FFF72CFF3046296C39
:1016A000FFF726FF281D00F031FB0122FFF740FF66
:1016B00008F022FC08F020FCC2681AB1CA6B0A6468
:1016C000002235E79CE700BF704700BF83680146F2
:1016D0000BB1012018477047012912D009D873B9FE
:1016E0000F2A0CD800EB820218465368009A136048
:1016F00070470339012994BF01200220704702205E
:1017000070470846704700BF10B584B0002303AC93
:101710000A4600941946FFF7DFFF039804B010BD96
:10172000012912D009D873B90F2A0CD800EB820016
:10173000009A12684260184670470339012994BF25
:10174000012002207047022070470846704700BF02
:1017500010B584B0002303AC039200940A461946E6
:10176000FFF7DEFF04B010BDF0B5D36B1364151D99
:101770008C4606460FCDADF50F7D17AC0FC40FCDCF
:101780000FC40FCD0FC495E80F004FF0FF3784E86A
:101790000F006546169710E0FFF7DAFF294616A8F6
:1017A000B047034616AA6946082083B9049B9847A8
:1017B000052804460CD0092809D026996846FFF769
:1017C00015FE03466A460C2116A8002BE4D0092416
:1017D00016A8FFF759FE20460DF50F7DF0BD00BF9E
:1017E0002DE9F04FCC6C89B00D4654F8041B0694DB
:1017F000174600F003081E46002B79D00B0CDAB216
:1018000009048DF81D30022304EB820405918DF844
:101810001C302B6DB8F1020F08BFAC6B13F0010345
:101820000CD0384605A900F073FB18B9082009B0A0
:10183000BDE8F08F092009B0BDE8F08FD4F800A012
:10184000BAF1000FEDD0019300F008030293022ECD
:101850004AD0B4F800A0B4F802900434AA6C29F07D
:10186000010B0F2138469344FFF74EFF834539D8CB
:101870002AF001025A44824294BF002001204FEA1C
:10188000490303F002030AF0010A43EA0A03012BA9
:1018900049D0022B32D0002BCCD1B8F1000F02D0AE
:1018A000002840F0CD800434D4F800A0BAF1000F35
:1018B000CDD105A9384600F02BFB0028BAD1019BF9
:1018C000002BB3D00F213846FFF71EFF0E21024632
:1018D0003846FFF73DFF38466A4A0F21FFF738FFC9
:1018E0000720A8E70020CAE7D4F804900834B5E739
:1018F000090203230591ADF81C308AE7236823F021
:10190000004BB8F1000F45D128B1029A002A5CD0F3
:10191000BBF1000F74D0002B00DA04340BF1010B83
:1019200004EB8B04C0E7B8F1000F19D1B0B1D4E9D2
:101930000023991C4FEAD2723FF47CAF05F15801A5
:101940000133049100F09080201DFFF7C9FD04AB26
:1019500001462846AFF3008000285BD10834A3E796
:101960000D213846D5F82090FFF7CEFE8145F5D100
:10197000AB6A9C42F2D12046FFF7ECFC0F210246F5
:101980003846FFF7E5FE38462A460021FFF7E0FE1D
:10199000072050E70D213846D5F82090FFF7B4FE18
:1019A000814501D02368B6E7AB6A9C42FAD1042294
:1019B0000021C5E90B12A318C5F828B06B63236892
:1019C0008B4259DB01230193A8E705F15803CDF8B9
:1019D0000C8004F1040AB04691461E460DE00496C0
:1019E000FFF77EFD04AB014600222846AFF30080DE
:1019F00009F101090AF1040AE8B9D9455046EED1C6
:101A000038460D21FFF780FE049B2862C5E90934A2
:101A1000062010E781460D213846FFF775FEB9F123
:101A2000020F286225D12B46049A43F82C2F6B62B3
:101A3000AC620620FFE646462368DDF80C806AE7C4
:101A40002046FFF787FC04340246AC632846144660
:101A5000AFF3008000283FF4EDAE384622460F2158
:101A6000FFF776FE0720E6E638460D21FFF74CFE2D
:101A70002862049B6B62DBE70BF1010004EB800042
:101A80007AE700BF000000000023A9E60123A7E6D3
:101A90000223A5E62DE9F0430646C3B015461C46D1
:101AA000042900F2B980DFE801F09A53B729030056
:101AB000002C40F0B180102A00F2AE800368D806F6
:101AC00000F1F38020AF384600F092F9B06B0023AC
:101AD000012404FA03F22A42014604D051F8042BEF
:101AE00047F8232008460133042BF2D1B06338466F
:101AF00000F074F9002043B0BDE8F083032C40F0FF
:101B00008B8094B204EB1243102B4FEA124500F283
:101B1000838003681F0700F1D08020AF384600F0B3
:101B20003BF907EBC501B56B54B10B46E81A01EB65
:101B3000C401E4001A5843F8042B8B42FAD125441F
:101B40003846B56300F006F9002043B0BDE8F083E5
:101B5000012C4FEA124895B25AD0052C5CD108EB03
:101B60000509B9F1200F57D8B8F10F0F77D9A94659
:101B7000002D40F08880B36B6DB320AF4FF00009AB
:101B800007EBC807043F03EBC50553F8041B47F8F0
:101B9000041FAB42F9D1B9F1000F0FD06F46414697
:101BA000102938BF102107EBC101843903EBC905A7
:101BB00053F8040B41F8040FAB42F9D1012C00F0AB
:101BC0008480B8F10F0FB56345D9B9F1000F02D089
:101BD000684600F0B7F8002043B0BDE8F083DCB9F8
:101BE000876B2346012094B206F1040C00FA03F23D
:101BF0002242394604D051F8042B4CF823200F46DA
:101C00000133102BF2D115F40050E4D1B76304E096
:101C100008EB0503102B03D9022043B0BDE8F08385
:101C2000B8F10F0FF8D83368DA0706D5304623F03D
:101C3000030340F8483B00F079F820AF384600F045
:101C400075F8B36B002D99D11D460435B563384640
:101C500000F068F8BFE720A800F06CF8B5E7B9F12C
:101C6000100F40D9A9F110093368D90708D523F01E
:101C70000103304643F0020340F8483B00F05EF8B1
:101C8000B9F1000F32D033685A0720D4B8F10F0FE2
:101C900025D96F463846C8F1100500F057F8002DD9
:101CA000B36B7FF77CAF20AF6AE723F0100333609C
:101CB00006F5E87000F09CF804E723F008030360E1
:101CC00000F5A87000F068F827E720AFBDE73046C0
:101CD00023F0040340F8D03B00F038F8D6E720A802
:101CE00000F02CF8D5E74FF00009BDE7B8F10F0F71
:101CF0003FF641AF20AF384600F020F8B36B002D1F
:101D00007FF43CAF384600F015F864E700F1340189
:101D100091E838009C46A6464CF8045D90E8FF0F19
:101D2000E54600BD90EC210B704700BF80EC210B15
:101D3000704700BF90EC200B704700BF80EC200B79
:101D4000704700BFD0EC200B704700BFC0EC200BE9
:101D5000704700BFF0EC0201F0EC0211F0EC022140
:101D6000F0EC0231F0EC0241F0EC0251F0EC0261D7
:101D7000F0EC0271F0EC0281F0EC0291F0EC02A1C7
:101D8000F0EC02B1F0EC02C1F0EC02D1F0EC02E1B7
:101D9000F0EC02F1704700BFE0EC0201E0EC021150
:101DA000E0EC0221E0EC0231E0EC0241E0EC025117
:101DB000E0EC0261E0EC0271E0EC0281E0EC029107
:101DC000E0EC02A1E0EC02B1E0EC02C1E0EC02D1F7
:101DD000E0EC02E1E0EC02F1704700BFB0FC0181F1
:101DE000B0FC0191B0FC01A1B0FC01B1704700BF93
:101DF000A0FC0181A0FC0191A0FC01A1A0FC01B10B
:101E0000704700BFEC4600B52DE900502DE9FF1FDB
:101E10004FF000032DE90C0001A9FFF7F1FBDDF8FD
:101E200040E012B0704700BFEC4600B52DE900500D
:101E30002DE9FF1F4FF000032DE90C0001A9FFF76A
:101E400019FCDDF840E012B0704700BFEC4600B569
:101E50002DE900502DE9FF1F4FF000032DE90C0084
:101E600001A9FFF729FCDDF840E012B0704700BF80
:101E7000EC4600B52DE900502DE9FF1F4FF000039F
:101E80002DE90C0001ABFFF7EBFBDDF840E012B0F1
:101E9000704700BFEC4600B52DE900502DE9FF1F4B
:101EA0004FF000032DE90C0001AAFFF75DFCDDF8FF
:101EB00040E012B0704700BF027A7AB9437AA3B10A
:101EC0004268013B10B4437213680321141D017270
:101ED0001A024460026010BC180E70470368013A91
:101EE00002721A020260180E7047B020704700BFDD
:101EF00000B585B003AA0023009219460C22FFF713
:101F0000EBFB039805B05DF804FB00BFF0E700BFF2
:101F10002DE9F043054685B00E464FF000083046E7
:101F2000FFF7CAFFB028044600F0B280070620D5AC
:101F300000F0F003802B4DD0902B36D0A02B60D03A
:101F4000B02B74D0C02B00F08B8000F0F803D02BA6
:101F50000BD100F00702013242F4002205230121D7
:101F60002846FFF797FD0028D9D0092005B0BDE825
:101F7000F0830DF10C09002319468700CDF800907D
:101F80000D222846FFF7A8FBFFB2039BCDF8009077
:101F9000043760064CBFDF1BFF18002319460D22D3
:101FA00028460397FFF7BCFBB9E700F00D030D2BA4
:101FB000DBD003AF002300F00F021946009728463C
:101FC000FFF78AFB0023009719460D222846FFF7EA
:101FD000A7FBA4E73046FFF76FFF24022043B0F5CC
:101FE000004FC2D004010023A2B219462846FFF7D1
:101FF00051FD0028B9D114F4004F18BF4FF001086B
:102000008DE7C24302F007034FF47F621A410107D4
:1020100002F47F624FF0000348BF42F48042194649
:102020002846FFF737FD00283FF479AF9DE7B12838
:1020300033D0B22800F08B80B32839D000F0FC03F5
:10204000B42B92D000F007020132012342F40022A7
:1020500019462846FFF71EFD00283FF460AF84E7CD
:10206000C62842D0C7284CD000F0F803C02B5BD064
:10207000C82860D0C9287FF478AF3046FFF71CFF2E
:10208000020300F00F0002F470220130024365E702
:10209000B8F1000F18D0002068E73046FFF70CFFBA
:1020A000024600283FF461AF10F0F003D0D05CE7A7
:1020B0003046FFF701FF010300F00F0001F470212B
:1020C000421C01230A43C3E703AC43460E224146A8
:1020D00000942846FFF700FB0094284643460F2251
:1020E0004146FFF71DFB404640E73046FFF7E4FE60
:1020F000010300F00F0001F47021421C03230A4386
:10210000A6E73046FFF7D8FE024600283FF42DAF81
:1021100010F0F0037FF429AF04212846FFF7BAFC42
:1021200000283FF4FCAE20E700F00F020132032349
:1021300042F420228CE73046FFF7BEFE00F0F002AA
:1021400000F00F031032013343EA023206E70023A6
:102150000DF10C090D221946CDF800902846FFF725
:10216000BBFA3046FFF7A8FE02064FF002070CD577
:10217000039B00F07F00B840034430460393FFF711
:102180009BFE030607F10707F2D4039BCDF80090EE
:1021900000F07F0403F50172BC400023144419468B
:1021A0000D2228460394FFF7BBFAB8E610B5C26CBF
:1021B00084B0536803248DF80C401B0202F108041C
:1021C0000846D279019301A902948DF80D20FFF7FA
:1021D0009FFE04B010BD00BF08B5FFF797FE806CEE
:1021E00008BD00BF08B5FFF791FEC06CC37902338C
:1021F00000EB830008BD00BF704700BF844641EA82
:10220000000313F003036DD1403A41D351F8043B6E
:1022100040F8043B51F8043B40F8043B51F8043BC0
:1022200040F8043B51F8043B40F8043B51F8043BB0
:1022300040F8043B51F8043B40F8043B51F8043BA0
:1022400040F8043B51F8043B40F8043B51F8043B90
:1022500040F8043B51F8043B40F8043B51F8043B80
:1022600040F8043B51F8043B40F8043B51F8043B70
:1022700040F8043B51F8043B40F8043B51F8043B60
:1022800040F8043B51F8043B40F8043B403ABDD2CF
:10229000303211D351F8043B40F8043B51F8043B71
:1022A00040F8043B51F8043B40F8043B51F8043B30
:1022B00040F8043B103AEDD20C3205D351F8043B00
:1022C00040F8043B043AF9D2043208D0D2071CBFCC
:1022D00011F8013B00F8013B01D30B8803806046F5
:1022E000704700BF082A13D38B078DD010F003036B
:1022F0008AD0C3F10403D21ADB071CBF11F8013BDB
:1023000000F8013B80D331F8023B20F8023B7BE729
:10231000043AD9D3013A11F8013B00F8013BF9D254
:102320000B7803704B7843708B78837060467047EE
:1023300001F0FF01102A2BDB10F0070F08D010F876
:10234000013B013A8B422DD010F0070F42B3F6D17A
:10235000F0B441EA012141EA014122F007047FF093
:1023600000070023F0E80256083C85EA010586EAEA
:10237000010685FA47F5A3FA87F586FA47F6A5FA26
:1023800087F68EB9EED1F0BC01F0FF0102F0070232
:1023900032B110F8013B013A83EA010313B1F8D1DD
:1023A0000020704701387047002D06BF35460338BE
:1023B000073815F0010F07D1013015F4807F02BFF7
:1023C000013015F4C03F0130F0BC0138704700BF48
:1023D00000000000000000000000000000000000FD
:1023E00000000000000000000000000000000000ED
:1023F00000000000000000000000000000000000DD
:1024000090F800F06DE9024520F007016FF0000C34
:1024100010F0070491F820F040F049804FF00004DC
:102420006FF00700D1E9002391F840F000F10800B7
:1024300082FA4CF2A4FA8CF283FA4CF3A2FA8CF3EF
:102440004BBBD1E9022382FA4CF200F10800A4FA56
:102450008CF283FA4CF3A2FA8CF3E3B9D1E90423AA
:1024600082FA4CF200F10800A4FA8CF283FA4CF3E1
:10247000A2FA8CF37BB9D1E9062301F1200182FA9B
:102480004CF200F10800A4FA8CF283FA4CF3A2FAA1
:102490008CF3002BC6D0002A04BF04301A4612BAAF
:1024A000B2FA82F2FDE8024500EBD2007047D1E9B2
:1024B000002304F00305C4F100004FEAC50514F041
:1024C000040F91F840F00CFA05F562EA05021CBF12
:1024D00063EA050362464FF00004A9E780B590B0B7
:1024E00000AF78600B46FB70FB78002B27D107F11B
:1024F000240300221A605A609A60DA601A615A61F5
:102500002D4A7B6852F833307B62012387F82830EC
:10251000012387F829304FF0FF333B6307F1240391
:10252000184606F0DDF8244A7B68DB0013440122DC
:102530001A717B68DB00204A1344FB6336E0FB78AA
:10254000012B31D107F10C0300221A605A609A6006
:10255000DA601A615A61184A7B6852F83330FB60BE
:1025600001233B754FF0FF33BB6107F10C031846A5
:1025700006F028F9104A7B68DB00134402221A7126
:102580007B68292B0AD97B682C2B07D80A4A7B68E1
:1025900052F833300121184606F050F97B68DB0011
:1025A000054A1344FB6301E00023FB63FB6B184601
:1025B0004037BD4680BD00BF0000002080B586B01A
:1025C00000AF78607B683B613B69002B0BD03B69B7
:1025D0001B79012B07D13B691B68184606F03CF9B3
:1025E0000346FB7501E00023FB753B691B681B0A72
:1025F000DBB2FB603B691B68DBB2BB60FB68022B94
:1026000002D1BB68062B05D0FB68002B09D1BB6843
:10261000042B06D1FB7D002B0CBF01230023DBB272
:10262000FB75FB7D18461837BD4680BD80B586B06A
:1026300000AF78600B46FB707B687B617B69002B89
:102640002FD07B691B79022B2BD17B691B681B0A5E
:10265000DBB23B617B691B68DBB2FB603B69012B32
:1026600005D1FB68162B08D0FB68152B05D03B69FC
:10267000042B0FD1FB681A2B0CD17B691A68FB78ED
:10268000012B14BF01230023DBB21946104606F0CC
:10269000D5F806E07B691B68FA781146184606F003
:1026A000CDF800BF1837BD4680BD80B485B000AFFF
:1026B00078607B68FB60FB68002B0ED0FB681B79A1
:1026C000022B03D1FB6800221A7106E0FB681B791C
:1026D000012B02D1FB6800221A7100BF1437BD46DE
:1026E0005DF8047B7047000080B584B000AFF860EF
:1026F000B9601346FB71BB681F2B05D90D4B0E4A01
:10270000FF210E4807F000FCFB68BA6853F822303E
:1027100023F0807323F4E063FA79120202F4E0629A
:1027200043EA0201FB68BA6843F8221000BF103781
:10273000BD4680BDF8CA0000BCCC000004CB000040
:1027400080B483B000AF78600B46FB707B681B6879
:1027500023F01802FB78DB0003F018031A437B68B0
:102760001A6000BF0C37BD465DF8047B704700005F
:1027700080B58EB000AF786187ED020B87ED001B4E
:10278000524A7B695B01134411331B78002B40F0E4
:102790008780002387F82830002387F8293000231A
:1027A00087F82A308023FB62484A7B695B01134427
:1027B0001868464A7B695B01134404331968434A2D
:1027C0007B695B01134410331B781A46FFF78CFFBB
:1027D0003E4A7B695B01134408331B6807F12802FA
:1027E0001146184605F0A4FD384A7B695B01134485
:1027F00008331B68DBB200220121184605F01EFEDB
:10280000324A7B695B011344113304221A702F4A48
:102810007B695B01134403F11801D7E90223C1E985
:10282000002302233B7600237B76284A7B695B01E9
:1028300013441833D3E9002310461946FEF7A0FBD2
:102840000346FB61D7E90001FEF79AFB03463B62B2
:102850000023BB841D4A7B695B01134408331B685A
:102860001B4A52F823303B630021386BFFF768FFA7
:10287000164A7B695B01134408331868134A7B6965
:102880005B0113440C331B68DAB207F118031946D5
:1028900005F032FE7B695B010C4A13447B630FE059
:1028A0000A4A7B695B01134411331B78042B05D161
:1028B0007B695B01054A13447B6301E000237B6372
:1028C0007B6B18463837BD4680BD00BF78010020BD
:1028D00078D4000080B483B000AF786000BF0C37BC
:1028E000BD465DF8047B704780B58AB000AFF860E4
:1028F00087ED000BFB687B627B6A002B2CD07B6A28
:102900005B7C042B28D102233B7400237B747B6AFD
:10291000D3E9062310461946FEF732FB03467B61D6
:10292000D7E90001FEF72CFB0346BB610023BB8304
:102930007B6A9B680A4A52F823303B620021386A5E
:10294000FFF7FEFE7B6A98687B6ADB68DAB207F104
:102950001003194605F0D0FD00BF2837BD4680BDE5
:1029600078D4000080B485B000AF78607B68FB60ED
:10297000FB68002B06D0FB685B7C042B02D1FB6854
:1029800000225A7400BF1437BD465DF8047B7047BF
:1029900080B483B000AF786000BF0C37BD465DF8EF
:1029A000047B704780B584B000AFF860B9607A608E
:1029B000BB680F2B06D90A4B0A4A40F2E2210A48AB
:1029C00007F0A2FAFA68BB685B01134403F5805371
:1029D00010337A681A6000BF1037BD4680BD00BF53
:1029E0003CCB0000F4CC000068CB000080B584B084
:1029F00000AFF860B9601346FB71BB680F2B06D9B6
:102A00000D4B0E4A4FF460710D4807F07DFABB681C
:102A10005B0103F580531833FA681344043303F160
:102A2000424303F580135B010433FA7992B21A80B2
:102A300000BF1037BD4680BD3CCB000010CD00006C
:102A400068CB000090B587B000AFF8607A603B605B
:102A50000B46FB7200237B61FB681B68032B00F0B5
:102A6000E481032B05D8012B00F09880022B00F0A5
:102A70004781954B00221A60934B1B68934A52F88A
:102A80002330002B41D1904B1B68914ADB0013444B
:102A900000229A718C4B1B688D4ADB001344002284
:102AA0001A71894B1B688A4ADB00134400225A7151
:102AB000854B1B68864A4FF4E13142F83310824B54
:102AC0001B68184602F008FC7F4B1B689B01814A7B
:102AD00013448149184605F037FB7B4B18687A4B45
:102AE0001A6813461B019B1A9B007C4A9918764B67
:102AF0001B68DB00764A13441A4606F09FFB724BB4
:102B00001B68724A012142F823107B68B3F1FF3F32
:102B100020D06D4B1A68724913469B0013449B00EA
:102B20000B4410221A60684B1A686D4913469B00CB
:102B300013449B000B4408336A4A1A60624B1A68BC
:102B4000674913469B0013449B000B440C33664AB1
:102B50001A6015E05C4B1A68614913469B001344E8
:102B60009B000B4404330E221A60574B1A685C49D1
:102B700013469B0013449B000B4410335B4A1A60BE
:102B8000514B1B68504A1268594941F823204E4B5B
:102B90001B689B00564A13447B61DBE14A4B0122D0
:102BA0001A60494B1B68494A52F82330002B41D127
:102BB000454B1B68464ADB00134400229A71424B86
:102BC0001B68434ADB00134400221A713E4B1B680A
:102BD0003F4ADB00134400225A713B4B1B683C4ABE
:102BE0004FF4E13142F83310374B1B68184602F0BE
:102BF00073FB354B1B689B01364A13443649184614
:102C000005F0A2FA304B18682F4B1A6813461B01C7
:102C10009B1A9B00314A99182B4B1B68DB002C4AEE
:102C200013441A4606F00AFB274B1B68274A01216A
:102C300042F823107B68B3F1FF3F20D0224B1A6883
:102C4000274913469B0013449B000B4400221A6043
:102C50001D4B1A68224913469B0013449B000B44EA
:102C60000833244A1A60184B1A681D4913469B0002
:102C700013449B000B440C331F4A1A6015E0124B9F
:102C80001A68174913469B0013449B000B440433F6
:102C900000221A600C4B1A68114913469B0013441A
:102CA0009B000B441033154A1A60074B1B68064AF9
:102CB00012680F4941F82320034B1B689B000C4A04
:102CC00013447B6146E100BF7012002074120020A3
:102CD00090110020A80E00203804002028100020A9
:102CE000C8110020780E0020880E0020980E0020C9
:102CF00058120020980E0020980E0020A80E0020E8
:102D0000AD4B02221A60AC4B1B68AC4A52F8233020
:102D1000002B41D1A84B1B68A94ADB0013440022B9
:102D20009A71A54B1B68A64ADB00134400221A7156
:102D3000A14B1B68A24ADB00134400225A719E4B30
:102D40001B689F4A4FF4E13142F833109A4B1B68DD
:102D5000184602F0C1FA984B1B689B01994A13442C
:102D60009949184605F0F0F9934B1868924B1A6888
:102D700013461B019B1A9B00944A99188E4B1B68A3
:102D8000DB008F4A13441A4606F058FA8A4B1B6838
:102D90008A4A012142F823107B68B3F1FF3F20D01B
:102DA000854B1A688A4913469B0013449B000B44C9
:102DB00000221A60804B1A68854913469B00134411
:102DC0009B000B440833834A1A607B4B1A68804986
:102DD00013469B0013449B000B440C337E4A1A603D
:102DE00015E0754B1A687A4913469B0013449B0003
:102DF0000B44043300221A606F4B1A68744913465F
:102E00009B0013449B000B441033744A1A606A4BB6
:102E10001B68694A1268724941F82320664B1B6897
:102E20009B006F4A13447B6194E0634B03221A605A
:102E3000614B1B68614A52F82330002B41D15E4B35
:102E40001B685F4ADB00134400229A715A4B1B68CF
:102E50005B4ADB00134400221A71574B1B68584A27
:102E6000DB00134400225A71534B1B68544A4FF441
:102E7000E13142F83310504B1B68184602F02CFA2F
:102E80004D4B1B689B014F4A13444F49184605F0B0
:102E90005BF9494B1868484B1A6813461B019B1A8B
:102EA0009B004A4A9918444B1B68DB00444A134470
:102EB0001A4606F0C3F9404B1B68404A012142F80C
:102EC00023107B68B3F1FF3F20D03B4B1A68404989
:102ED00013469B0013449B000B4400221A60364BA0
:102EE0001A683B4913469B0013449B000B4408336C
:102EF0003C4A1A60304B1A68354913469B0013440C
:102F00009B000B440C33384A1A6015E02A4B1A68B0
:102F10002F4913469B0013449B000B4404330022AB
:102F20001A60254B1A682A4913469B0013449B00DC
:102F30000B4410332D4A1A601F4B1B681E4A12683F
:102F4000274941F823201C4B1B689B00244A13444B
:102F50007B6100BF7B68B3F1FF3F27D0164B1A6837
:102F600013461B019B1A9B002833184A1344043351
:102F7000114A12681E49184605F028F90E4B1868C8
:102F80000D4B1A68124913469B0013449B000B44D7
:102F900008331968084B1A680D4C13469B001344FC
:102FA0009B0023441B681A4600F0E0F87B69184632
:102FB0001C37BD4690BD00BF701200207412002067
:102FC00090110020A80E00203804002028100020B6
:102FD000C8110020980E0020980E0020A80E002096
:102FE00058120020980E0020980E0020A80E0020F5
:102FF0001932000080B483B000AF786039600023DC
:1030000018460C37BD465DF8047B704780B483B02A
:1030100000AF7860084611461A460346FB700B461F
:10302000BB7013467B70002318460C37BD465DF815
:10303000047B704780B586B000AFF860B9607A60F5
:10304000FB683B613B69002B33D03B691B681F4A1F
:10305000D35C012B2DD13B691B681D4A52F82330EC
:10306000012B0FD13B691A681A4913469B00134480
:103070009B000B4408331B687A681946B868FFF751
:10308000BDF80EE03B691A68124913469B001344D1
:103090009B000B440C331B687A681946B868FFF72D
:1030A000ADF83B691B68094A0021D1540023FB7528
:1030B00006E07A680021B86807F068FA2023FB75FB
:1030C000FB7D18461837BD4680BD00BFC0110020EB
:1030D00040120020C811002080B586B000AFF86013
:1030E000B9607A60FB683B613B69002B2AD03B6981
:1030F0001B680021184606F0F5F90346082B21D07D
:103100003B691A68134913469B0013449B000B4408
:1031100010331B687A68B9681846FFF76FF83B6987
:1031200018683B691A680B4913469B0013449B00BF
:103130000B4410331B687A68194606F0AFF9034652
:10314000FB7501E02023FB75FB7D18461837BD4653
:1031500080BD00BFC811002080B483B000AF78608C
:1031600000BF0C37BD465DF8047B704780B588B062
:1031700000AFF860B9607A60FB68052B06D9214B77
:10318000214A40F28911214806F0BEFE204AFB6820
:1031900052F82330FB61FB6993F82C301B09DBB23A
:1031A0001A461C4B53F82230BB61FB6993F82C3054
:1031B00003F00F037B61FB695B78DBB2002B01D06E
:1031C00009231AE0FB6901225A70BB681A46796923
:1031D000B869FFF7E7FB7A687969B86904F0F2FE2D
:1031E00001227969B869FFF701FC7B69DBB2012232
:1031F0001946B86904F0D1FD002318462037BD46B2
:1032000080BD00BFA0CB0000D0CC0000C0CB000030
:103210007455002038D2000080B582B000AF7860CD
:103220000B46FB707B68184600F004F800BF0837B7
:10323000BD4680BD80B586B000AF78607B68052B49
:1032400006D93C4B3C4A40F2AD113C4806F05CFECE
:103250003B4A7B6852F823307B617B6993F82C30C2
:103260001B09DBB21A46374B53F822303B617B69AE
:1032700093F82C3003F00F03FB600022F9683869E3
:10328000FFF7B4FBFB68DBB200221946386904F093
:1032900084FD7B69DB78DBB2002B04D07B691033C3
:1032A000184604F0F7FA7B6900225A70264A7B68B8
:1032B000134401221A70254A7B6852F82330002BF0
:1032C0001AD123497A6813469B0013449B000B4490
:1032D0000C3319681E487A6813469B0013449B0000
:1032E00003441B681A467868FFF740FF174A7B685B
:1032F000012142F8231019E015497A6813469B0012
:1033000013449B000B440833196811487A6813462C
:103310009B0013449B0003441B681A467868FFF720
:1033200025FF0A4A7B68002142F8231000BF1837A6
:10333000BD4680BDA0CB000028CD0000C0CB000062
:103340007455002038D20000C01100204012002027
:10335000C811002080B588B000AF78617B691B6818
:10336000FB61FB690133BB610FE0FB69DB000E4AC7
:103370001A443B461146184602F0E6FB0B4B1B680D
:10338000002B08D1B86900F061FF094B1B78DBB254
:10339000002BEAD100E000BF002002F021FB002357
:1033A00018462037BD4680BDA0120020C412002060
:1033B0003A04002080B586B000AF78611B4B1B68D3
:1033C0001B68002B0CBF01230023DBB21A46184BED
:1033D0001A701AE03B461749184602F0B5FB134B2A
:1033E0001B685B79002B02D1134802F09AFB002086
:1033F00000F02CFF0D4B1B681B68002B14BF012332
:103400000023DBB21A460D4B1A70094B1B78DBB256
:10341000002BDFD1786900F013F8002002F0E0FA09
:10342000002318461837BD4680BD00BF4CCD0000B4
:103430003A04002098120020A01200208C120020D4
:1034400080B586B002AF78601E4B01221A6000235F
:10345000FB6010E0FB68DB001B4A1344184602F0D7
:1034600060FBFB68DB00184A1344184602F086FB39
:10347000FB680133FB60FB68002BEBDD0023FB6086
:1034800010E01249FA6813469B0013449B000B445A
:103490000F4A01921A6900920FCB02F0B2FAFB6850
:1034A0000133FB60FB68002BEBDD0A4B00221A7036
:1034B00001F028F9084802F034FB002318461037C1
:1034C000BD4680BDC4120020A0120020C8120020FA
:1034D000C01200203A0400209012002080B586B06F
:1034E00000AF786139610E4B29221A6001F0C4FCEB
:1034F00001F08CFE0B4B1B6800221A6000F0BCFE32
:1035000001209FED090A02F07FF93B460749184662
:1035100002F01AFB002318461837BD4680BD00BFD5
:10352000DC1200204CCD00006F12833A9012002074
:1035300080B400AF084B5A790132D2B25A71064BAF
:103540005B79632B02D9044B00225A7100BFBD4640
:103550005DF8047B704700BFA014002080B584B0E4
:1035600000AF78607B6800221A727B6801225A6083
:10357000164B4FF0FF321A62144B00225A62134B63
:103580001B6A0A2200211248FFF75CFA02467B6898
:103590001A617B681B694FF4E1311846FFF72AFD79
:1035A0000A4B012283F828200023FB737B681869EB
:1035B000064B93F82830FA7B0821FFF727FD7B683C
:1035C00001221A7200BF1037BD4680BDE0120020F4
:1035D0000413002080B500AFFFF7AAFF00BF80BD35
:1035E0002DE9F04389B000AFB14BD3E91601B14BDF
:1035F000D3E90423FDF77CFC0346002B05D1AD4B3A
:10360000D3E90423AA49C1E91623A94B1B6D102253
:10361000A9491846FFF70EFD0346FB721022A64982
:10362000A648FEF7EBFDA24B93F86831002B37D18B
:103630009F4B012283F868219D4B012283F8692169
:103640009E4B012283F83A209C4B002283F83B20BA
:103650009A4B232283F83620984B232283F83D206F
:10366000964B012283F83720944B012283F83E20A9
:10367000924BFA22DA85914B4FF4A0721A868F4B47
:103680003C2283F839208D4B782283F83C208B4BE9
:103690000A2283F83820894B192283F83F207BE0E7
:1036A000834B93F86931032B10D0032B6EDC012B75
:1036B00002D0022B05D069E07D4B032283F86921FB
:1036C0006AE07B4B032283F8692165E0FB7A002BDB
:1036D00061D17A4B1B78162B52D1784B5B78222B19
:1036E00042D0552B47D1724B042283F86921734B8A
:1036F0009A78724B83F83A20704BDA786F4B83F8E4
:103700003B206E4B1A796D4B83F836206B4B5A7900
:103710006A4B83F83D20694B9A79684B83F83720D0
:10372000664BDA79654B83F83E200222644965488E
:10373000FEF764FD022264496448FEF75FFD5F4BBB
:103740001A7B5E4B83F839205C4B5A7B5B4B83F8CA
:103750003C205A4B9A7B594B83F83820574BDA7BE5
:10376000564B83F83F2010E0514B022283F8692129
:1037700001F096F909E04E4B032283F8692104E039
:103780004B4B032283F8692105E004E0484B0322F8
:1037900083F8692100E000BF454BD3E90E01454B9A
:1037A000D3E90023FDF7A4FB0346002B05D1414BD1
:1037B000D3E900233E49C1E90E233D4B1B6B18465C
:1037C000FEF7FCFE0346BB72394BD3E90601394BC9
:1037D000D3E90223FDF78CFB0346002B05D1354BC3
:1037E000D3E902233249C1E90623314B1B6918464C
:1037F000FEF7E4FE03467B722E4BD3E906892F4B7E
:1038000093F839301846FDF791F802460B464046CA
:103810004946FDF72FFA02460B4643EC172BB0EE54
:10382000470AF0EE670A06F05FF9B0EE407AF0EE74
:10383000607A87ED067B97ED060B02F011FA0346DE
:10384000002B06D197ED060B02F0E6F90346002B9C
:1038500006D04FF000024FF00003C7E906230BE04B
:103860009FED111B97ED060B06F0C2F9B0EE407A02
:10387000F0EE607A87ED067B4FF000024FF0000318
:10388000D7E90601FDF73EFB0346002B20D0BC69BB
:10389000FB6983F0004520462946FDF771FB03468E
:1038A0009BB25B429BB219E0000000000000F040B8
:1038B0003013002040040020F0120020E01200200D
:1038C000E81200200E130020EA120020101300203E
:1038D000D7E90601FDF754FB03469BB2FB80B54BCD
:1038E000D3F86431B3F1FF3F06D0B24BD3F8643163
:1038F0000133B04AC2F86431AE4B93F86A31002B01
:103900002CD1AC4B012283F86A21AA4B042283F804
:103910006B21A94B002283F84920A74B002283F892
:103920004620A54B002283F84220A34B002283F8B7
:103930004320A14B002283F841209F4B002283F8B3
:1039400045209D4B002283F848209B4B002283F8A2
:103950004420994B002283F84720ACE3954B93F821
:103960006B31013B052B00F20D8301A252F823F0CD
:1039700089390000633A0000373B0000693C0000D1
:10398000CB3D0000B13E00008B4B012283F841206B
:10399000894B002283F84520874B002283F848207A
:1039A000854B002283F84420834B012283F8472073
:1039B000814B012283F846207E4BD3F864311A46AE
:1039C000642303FB02F31A467B4BDB8D9A4211D32F
:1039D000794B93F83B30012B0CD1774B012283F8C4
:1039E0004920744B032283F86B21724B0022C3F8E9
:1039F00064214CE3FB88704A92F837209B1A3B61A4
:103A0000FB883A699A4201D900233B61694BD3F89C
:103A100064311A46642303FB02F31A463B6993425E
:103A200000F23583644B93F83B30002B40F02F833A
:103A3000604B022283F86B215E4B0022C3F86421A5
:103A40005D4B002283F841205B4B012283F8442028
:103A5000594B002283F84720574B002283F8492016
:103A600015E3554B002283F84120534B012283F884
:103A70004420514B002283F847204E4BD3F8643149
:103A80001A46642303FB02F31A464B4B93F8373074
:103A90009A42C0F0FE82474B012283F86B21454BCE
:103AA0000022C3F86421444B93F836301A4613467B
:103AB0009B0013445B007B617B69FF2B01D9FF23D3
:103AC0007B617869FCF742FF4FF000023B4BFDF74A
:103AD000D1F802460B4643EC172BB0EE470AF0EE46
:103AE000670A02F00FF953EC102B10461946FDF748
:103AF00047FA0346DAB2304B83F840202E4B0122BE
:103B000083F841202C4B002283F845202A4B0022C9
:103B100083F84820284B002283F84420264B0122BA
:103B200083F84720244B002283F84920224B0122AE
:103B300083F84620ADE2FB881F4AD28D9B1A3B6179
:103B4000FB883A699A4201D900233B611A4B93F8EA
:103B500037301A463B699B1AFB60FA683B699A4208
:103B600001D90023FB60134BD3F864311A46642358
:103B700003FB02F31A46FB68934221D8BB7A002B61
:103B80001ED10C4B022283F86B210A4B0022C3F892
:103B90006421094B002283F84120074B012283F85E
:103BA0004420054B002283F84720034B002283F872
:103BB000492070E230130020E01200200000144081
:103BC000BB7A002B00F06782B64B012283F86B2191
:103BD000B44B0022C3F86421B34B93F836301A4635
:103BE00013469B0013445B007B617B69FF2B01D96B
:103BF000FF237B617869FCF7A9FE4FF00002AB4B15
:103C0000FDF738F802460B4643EC172BB0EE470A97
:103C1000F0EE670A02F076F853EC102B10461946C6
:103C2000FDF7AEF90346DAB29F4B83F840209E4B76
:103C3000012283F841209C4B002283F845209A4BB7
:103C4000002283F84820984B002283F84420964BAA
:103C5000012283F84720944B002283F84920924B9D
:103C6000012283F8462016E28F4B002283F846207B
:103C70008D4B002283F842208B4B002283F8432097
:103C8000894B002283F84120874B002283F845208E
:103C9000854B002283F84820834B002283F8442080
:103CA000814B002283F847207F4B93F83A30002B5A
:103CB00046D0012B40F0F1817A4B012283F86B2131
:103CC000784B0022C3F86421774B93F836301A46BC
:103CD00013469B0013445B007B617B69FF2B01D97A
:103CE000FF237B617869FCF731FE4FF000026F4BD8
:103CF000FCF7C0FF02460B4643EC172BB0EE470A19
:103D0000F0EE670A01F0FEFF53EC102B1046194647
:103D1000FDF736F90346DAB2634B83F84020624B75
:103D2000012283F84120604B012283F847205E4B3B
:103D3000002283F849205C4B012283F8462043E0AF
:103D4000584B052283F86B21564B0022C3F864219F
:103D5000554B93F83D301A4613469B0013445B00C5
:103D60007B617B69FF2B01D9FF237B617869FCF7BD
:103D7000EDFD4FF000024D4BFCF77CFF02460B4679
:103D800043EC172BB0EE470AF0EE670A01F0BAFFDA
:103D900053EC102B10461946FDF7F2F80346DAB241
:103DA000414B83F84020404B012283F841203E4B99
:103DB000012283F848203C4B002283F849203A4BEB
:103DC000012283F8462000BF67E1374B012283F8C8
:103DD0004120354B002283F84520334B012283F8E4
:103DE0004820314B002283F844202F4B002283F8D7
:103DF00047202D4B012283F846202A4BD3F864310B
:103E00001A46642303FB02F31A46274B1B8E9A4281
:103E100011D3254B93F83B30012B0CD1224B0122BF
:103E200083F849201F4B072283F86B211D4B00228A
:103E3000C3F8642133E1FB881B4A92F83E209B1AA9
:103E40003B61FB883A699A4201D900233B61154BDB
:103E5000D3F864311A46642303FB02F31A463B6924
:103E6000934200F21C81104B93F83B30002B40F042
:103E700016810C4B062283F86B210A4B0022C3F8F3
:103E80006421094B002283F84120074B012283F86B
:103E90004520054B002283F84820034B002283F87D
:103EA0004920FCE030130020E01200200000144004
:103EB0007D4B002283F841207B4B012283F8452073
:103EC000794B002283F84820784BD3F864311A46A6
:103ED000642303FB02F31A46734B93F83E309A4275
:103EE000C0F0DF80714B052283F86B216F4B0022FD
:103EF000C3F864216C4B93F83D301A4613469B007F
:103F000013445B007B617B69FF2B01D9FF237B613D
:103F10007869FCF71BFD4FF00002654BFCF7AAFE29
:103F200002460B4643EC172BB0EE470AF0EE670A49
:103F300001F0E8FE53EC102B10461946FDF720F86F
:103F40000346DAB2584B83F84020574B012283F8DE
:103F50004120554B002283F84520534B012283F822
:103F60004820514B002283F844204F4B002283F815
:103F700047204D4B002283F849204B4B012283F808
:103F800046208EE0FB88484A128E9B1A3B61FB88D4
:103F90003A699A4201D900233B61444BD3F864311A
:103FA0001A46642303FB02F31A463B6993421BD86B
:103FB0007B7A002B18D13D4B062283F86B213B4BBB
:103FC0000022C3F86421384B002283F84120364B8D
:103FD000012283F84520344B002283F84820324BDD
:103FE000002283F8492065E07B7A002B62D02F4BBA
:103FF000052283F86B212D4B0022C3F864212A4B44
:1040000093F83D301A4613469B0013445B007B61D6
:104010007B69FF2B01D9FF237B617869FCF796FC54
:104020004FF00002224BFCF725FE02460B4643EC04
:10403000172BB0EE470AF0EE670A01F063FE53EC6F
:10404000102B10461946FCF79BFF0346DAB2164BBD
:1040500083F84020144B012283F84120124B0022A8
:1040600083F84520104B012283F848200E4B002294
:1040700083F844200C4B002283F847200A4B00228F
:1040800083F84920084B012283F8462012E000BF44
:1040900011E000BF0FE000BF0DE000BF0BE000BF6C
:1040A00009E000BF07E000BFE0120020301300204D
:1040B0000000144000BF624BD3F81031614A92F8FF
:1040C000412011461846FEF7B1FA5D4BD3F8C030D7
:1040D0005C4A92F8422011461846FEF7A7FA584B60
:1040E000D3F8AC30574A92F8432011461846FEF7F1
:1040F0009DFA534BD3F83831524A92F84420114676
:104100001846FEF793FA4E4BD3F8D4304D4A92F846
:10411000452011461846FEF789FA494BD3F8FC3082
:10412000484A92F8462011461846FEF77FFA444B5B
:10413000D3F84C31434A92F8472011461846FEF70F
:1041400075FA3F4BD3F8E8303E4A92F848201146C2
:104150001846FEF76BFA3A4B1C6F3A4B93F8403017
:104160001846FCF7E3FB02460B4643EC102B2046B7
:10417000FEF7BAFB324BD3F82431324A92F8492089
:1041800011461846FEF752FA2D4BD3F898602E4B85
:10419000D3E90E452B4B93F838301846FCF7C6FB95
:1041A000294BD3E90A23FCF765FD02460B4610466E
:1041B0001946254BD3E90C23FCF75CFD02460B4660
:1041C00020462946FCF72CFC02460B4643EC172BF5
:1041D000B0EE470AF0EE670A3046FEF785FB184B53
:1041E000D3F88460184BD3E91445164B93F83F304D
:1041F0001846FCF79BFB144BD3E91023FCF73AFD60
:1042000002460B46104619460F4BD3E91223FCF722
:1042100031FD02460B4620462946FCF701FC0246CA
:104220000B4643EC172BB0EE470AF0EE670A304618
:10423000FEF75AFB00BF2437BD46BDE8F08300BF40
:1042400030130020E01200204004002080B582B02E
:1042500000AF78607B68002B03D07B68012B03D014
:1042600005E0FFF7B7F902E0FFF7BAF900BF00BFBA
:104270000837BD4680BD000080B584B000AF08207F
:1042800001F086FC00F0F8FBB84B00225A64B74BF3
:10429000002283F84020B64BD3E90423B349C1E997
:1042A0001623B448FFF75AF9B04B012283F82020B7
:1042B000AE4B00225A62AD494FF00002AE4BC1E94D
:1042C0000E23AA4B002283F82020A94BD3E9002318
:1042D000A649C1E90E23A94BFB60A44B002283F839
:1042E0002820A24B01225A6200210020FEF7F6F896
:1042F0000246FB681A619D4B012283F828209B4BE4
:1043000001221A70994B00225A6098494FF000021E
:10431000994BC1E90623954B00221A70944BD3E9BF
:1043200002239249C1E90623904BFB608F4B002288
:104330001A728E4B01225A6000210120FEF7CEF83E
:104340000246FB681A61894B01221A72874B0122CF
:1043500083F80021854B0022C3F80421834B0022FF
:1043600083F80021864BBB60804B002283F8082134
:104370007E4B0122C3F8042101210220FEF7AEF892
:104380000246BB681A61794B012283F80821774BFA
:10439000012283F8B020754B0022C3F8B420734B80
:1043A000002283F8B020774BBB60704B002283F86B
:1043B000B8206E4B0122C3F8B42001210420FEF77F
:1043C0008DF80246BB681A61684B012283F8B82059
:1043D000664B012283F89C20644B0022C3F8A02086
:1043E000624B002283F89C20674BBB605F4B00222E
:1043F00083F8A4205D4B0122C3F8A02001210720EF
:10440000FEF76CF80246BB681A61584B012283F82C
:10441000A420564B012283F82821544B0022C3F8D4
:104420002C21524B002283F82821584BBB604F4B64
:10443000002283F830214D4B0122C3F82C210121A9
:104440000820FEF74BF80246BB681A61474B012271
:1044500083F83021454B012283F8C420434B0022CE
:10446000C3F8C820414B002283F8C420484BBB60EE
:104470003E4B002283F8CC203C4B0122C3F8C820DD
:1044800001210920FEF72AF80246BB681A61374B62
:10449000012283F8CC20354B012283F8EC20334BEA
:1044A0000022C3F8F020314B002283F8EC20394B76
:1044B000BB602E4B002283F8F4202C4B0122C3F862
:1044C000F02001210A20FEF709F80246BB681A61B4
:1044D000264B012283F8F420244B012283F83C214F
:1044E000224B0022C3F84021204B002283F83C21BC
:1044F000294BBB601D4B002283F844211B4B01223A
:10450000C3F8402101210B20FDF7E8FF0246BB68FC
:104510001A61164B012283F84421144B012283F8BF
:10452000D820124B0022C3F8DC20104B002283F865
:10453000D8201A4BBB600D4B002283F8E0200B4BB8
:104540000122C3F8DC2001210C20FDF7C7FF024641
:10455000BB681A61054B012283F8E020034B01225E
:1045600083F86020014B00225A6619E030130020C6
:1045700040040020701300200000F0BF5013002002
:1045800030140020E0130020CC1300205814002029
:10459000F41300201C1400206C14002008140020C8
:1045A000534B002283F86020524B7B60504B00221B
:1045B00083F868204E4B01225A669FED451B9FED04
:1045C000460B0520FEF7D4F802467B681A61484B7B
:1045D0001B6F1846FEF77EF9454B012283F86820D1
:1045E000434B012283F81421414B0022C3F81821C8
:1045F0003F4B002283F814213F4BBB603C4B002211
:1046000083F81C213A4B0122C3F8182101210D2007
:10461000FDF764FF0246BB681A61354B012283F83F
:104620001C21334B012283F88820314B0022C3F830
:104630008C202F4B002283F88820304B7B602C4B42
:10464000002283F890202A4B0122C3F88C209FED92
:10465000241B9FED210B0620FEF78AF802467B689B
:104660001A61234BD3F898301846FEF733F9204BE4
:10467000012283F890201E4B012283F874201C4BEA
:1046800000229A671A4B002283F874201C4B7B602F
:10469000174B002283F87C20154B01229A679FED6F
:1046A000121B9FED0D0B0320FEF762F802467B689C
:1046B0001A610F4BD3F884301846FEF70BF90C4BF8
:1046C000012283F87C2000BF1037BD4680BD00BFAB
:1046D00000000000000044400000000000409F4037
:1046E00000000000008049400000000000004E4033
:1046F000301300209013002044140020B813002031
:10470000A413002080B500AFBB4B93F84030002BC2
:1047100011D1B94B012283F84020B74B5B6C012BC0
:1047200009D1B54B93F84830002B04D0B24B1B6D28
:104730001846FEF711FD00F029FAAF4B93F8203030
:10474000002B11D1AC4B012283F82020AA4B5B6ACD
:10475000012B09D1A84B93F82830002B04D0A64B8D
:104760001B6B1846FDF7A1FFA34B1B78002B0FD145
:10477000A14B01221A70A04B5B68012B08D19E4B04
:104780001B7A002B04D09C4B1B691846FDF78DFF4C
:10479000994B93F80031002B13D1974B012283F8EA
:1047A0000021954BD3F80431012B0AD1924B93F899
:1047B0000831002B05D0904BD3F810311846FDF787
:1047C00074FF8D4B93F8B030002B13D18A4B01222C
:1047D00083F8B020884BD3F8B430012B0AD1864B34
:1047E00093F8B830002B05D0834BD3F8C03018466F
:1047F000FDF75BFF804B93F89C30002B13D17E4B71
:10480000012283F89C207C4BD3F8A030012B0AD1E5
:10481000794B93F8A430002B05D0774BD3F8AC300C
:104820001846FDF742FF744B93F82831002B13D143
:10483000714B012283F828216F4BD3F82C31012BC7
:104840000AD16D4B93F83031002B05D06A4BD3F869
:1048500038311846FDF729FF674B93F8C430002B19
:1048600013D1654B012283F8C420634BD3F8C830C1
:10487000012B0AD1604B93F8CC30002B05D05E4B56
:10488000D3F8D4301846FDF710FF5B4B93F8EC30AB
:10489000002B13D1584B012283F8EC20564BD3F850
:1048A000F030012B0AD1544B93F8F430002B05D093
:1048B000514BD3F8FC301846FDF7F7FE4E4B93F8FA
:1048C0003C31002B13D14C4B012283F83C214A4B45
:1048D000D3F84031012B0AD1474B93F84431002BD8
:1048E00005D0454BD3F84C311846FDF7DEFE424B60
:1048F00093F8D830002B13D13F4B012283F8D820F6
:104900003D4BD3F8DC30012B0AD13B4B93F8E03020
:10491000002B05D0384BD3F8E8301846FDF7C5FE1C
:10492000354B93F86030002B16D1334B012283F8BE
:104930006020314B5B6E012B0ED12F4B93F868300A
:10494000002B09D02C4B1B6F1846FEF70BF82A4B97
:104950001B6F1846FEF71CF8274B93F81431002BF9
:1049600013D1254B012283F81421234BD3F818319E
:10497000012B0AD1204B93F81C31002B05D01E4B84
:10498000D3F824311846FDF790FE1B4B93F888307E
:10499000002B19D1184B012283F88820164BD3F82D
:1049A0008C30012B10D1144B93F89030002B0BD08E
:1049B000114BD3F898301846FDF7D4FF0E4BD3F8BF
:1049C00098301846FDF7E4FF0B4B93F87430002B3A
:1049D0001CD1094B012283F87420074B9B6F012BDC
:1049E00014D1054B93F87C30002B0FD0024BD3F839
:1049F0008430184602E000BF30130020FDF7B2FFFC
:104A0000034BD3F884301846FDF7C2FF00BF80BDCA
:104A10003013002080B586B000AF78607B6800223C
:104A20001A727B6801225A604FF0FF337B610023CA
:104A3000FB6007F10C000A237A690021FEF702F8F7
:104A400002467B681A617B681B694FF4E1311846A6
:104A5000FEF7D0FA0123FB740023BB747B6818694E
:104A6000FB7CBA7C0821FEF7D1FA7B6801221A721E
:104A700000BF1837BD4680BD80B500AF064B002291
:104A8000C3F85421044B002283F850210348FFF758
:104A9000C1FF00BF80BD00BF301300208014002084
:104AA00080B588B000AF334BDA8D324B5A85314B2D
:104AB0001A8E304B9A8502222F493048FDF79EFB13
:104AC00002222F492F48FDF799FB2A4B93F83A30E1
:104AD0003B70284B93F83B307B70264B93F8363075
:104AE000BB70244B93F83D30FB70224B93F837306A
:104AF0003B71204B93F83E307B711E4B93F8323064
:104B0000BB711C4B93F834303B721A4B93F8333023
:104B1000FB71184B93F835307B72164B93F8393094
:104B2000BB72144B93F83C30FB72124B93F8383045
:104B30003B73104B93F83F307B730123FB7711E0FD
:104B4000394607F110030E221846FDF757FB0E4BAE
:104B5000D3F8603107F110010E221846FEF7BCFAB7
:104B60000346FB77FB7F002BEAD100BF00BF203755
:104B7000BD4680BDE01200200A1300201213002061
:104B80000C130020141300203013002080B500AF58
:104B90000D4B93F85031002B13D10B4B012283F8AE
:104BA0005021094BD3F85431012B0AD1064B93F80D
:104BB0005831002B05D0044BD3F860311846FEF76E
:104BC000CBFA00BF80BD00BF3013002080B489B095
:104BD00000AF294BFB60294A294B9A4216D000238B
:104BE000FB610AE0264AFB6952F823202349FB694E
:104BF00041F82320FB690133FB61FB689B08FA69DC
:104C00009A42EFD31F4B1D4A9A6002E01D4B1C4A8B
:104C10009A601D4BBB611D4B7B611D4BBB60BA682D
:104C20007B69D31AFB6107E07A69531C7B61BB691E
:104C3000591CB96112781A70FB695A1EFA61002B6F
:104C4000F2D1144B3B61144B7B607A683B69D31AF9
:104C5000FB6104E03B695A1C3A6100221A70FB694F
:104C60005A1EFA61002BF5D100BF00BF2437BD46A4
:104C70005DF8047B704700BF0000000000000000EA
:104C80000000000000ED00E00000002074E10000E2
:104C9000CCEF0000580E00206856002080B400AF12
:104CA0006B4BD3F888306A4A43F47003C2F88830FB
:104CB000684B4CF22052DA81664B4DF62812DA81AD
:104CC000644B4FF4E9721A80634B1B78DBB203F03C
:104CD0000103002B0FD0614B9B78DBB203F008037C
:104CE000002B2ED05D4B9B78DBB25C4A43F008036F
:104CF000DBB2937025E05A4B03F581531C331B68DC
:104D0000574943F0005201F581531C331A60554B4B
:104D10001B6903F48073002B13D1524B1B6923F4DE
:104D20007C53504A43F4407313614E4B1B694D4A08
:104D300043F4807313614B4B1B694A4A23F400739D
:104D40001361494B2A221A70454B03F582530433F1
:104D50004FF08A721A60424B1B6823F44023404A8A
:104D600043F4002313603E4B03F5805304331B6868
:104D700023F440333A4943F4803201F5805304333D
:104D80001A60374B03F5815318331B68344943F4D9
:104D9000007201F5815318331A60344B9B6C334A0F
:104DA00023F0807323F4E0639364314B00221A7282
:104DB0002F4B5B78DBB223F06003DBB22C4A43F06D
:104DC0002003DBB253702B4B80221A70284B002239
:104DD0001A73274BBA221A7000BF254B9B79DBB29E
:104DE00003F01003002BF8D1214BDB78DBB2204A13
:104DF00003F01F03DBB2D3701D4B13221A711C4B3F
:104E000018225A711A4B5B79DBB2194A43F04003FE
:104E1000DBB2537100BF164B9B79DBB203F040034A
:104E2000002BF8D0124B1B78DBB2114A03F03F0382
:104E3000DBB2137000BF0E4B9B79DBB203F00C03A7
:104E40000C2BF8D100BF00BFBD465DF8047B704756
:104E500000ED00E00020054000F0074000D00740D2
:104E60000070044000D0034000E007400090044080
:104E7000004006400050064080B483B000AF9C4B19
:104E80001B78DBB203F0C003002B40F0DE80984BB0
:104E90005B79DBB203F04003002B40F0B980944B08
:104EA0001B78DBB203F00403002B4ED1904B1B7B2D
:104EB000DBB203F00303002B02D0012B03D006E08A
:104EC0008C4B7B6006E04FF400437B6002E08A4B32
:104ED0007B6000BF864B5B78DBB203F03003002BB6
:104EE00023D0834B1B7BDBB203F00303012B1CD0CD
:104EF0007F4B1B78DBB203F03803302B05D0382B07
:104F000007D14FF4C0637B800EE04FF4A0637B8039
:104F10000AE0774B1B78DBB2DB0803F007032022A3
:104F200002FA03F37B8000BF09E0714B1B78DBB210
:104F3000DB0803F00703012202FA03F37B807B887E
:104F40007A68B2FBF3F37B6002E04FF400437B60CE
:104F5000674BDB78DBB203F0E003E02B51D0E02BB2
:104F600000F2B080C02B45D0C02B00F2AB80A02B4C
:104F700039D0A02B00F2A680802B2DD0802B00F200
:104F8000A180602B21D0602B00F29C80402B15D09B
:104F9000402B00F29780002B02D0202B07D091E00D
:104FA0007A6813469B001344DB017B608BE07A68D0
:104FB00013469B0013441B027B6084E07A6813460F
:104FC0001B019B1ADB017B607DE07A6813469B0026
:104FD00013445B027B6076E07B684FF4377202FB20
:104FE00003F37B606FE07B684FF4B76202FB03F36F
:104FF0007B6068E07B6840F6950202FB03F37B6010
:1050000061E07B6840F6713202FB03F37B605AE09B
:10501000374B1B79DBB29BB203F01F039BB201330A
:105020007B807B88334AB2FBF3F37B60304B5B7948
:10503000DBB29BB203F01F039BB218337B807A88EC
:105040007B6802FB03F37B603DE0294B1B78DBB2FE
:1050500003F0C003402B1AD1254B5B78DBB203F081
:105060000103002B03D14FF400437B602BE0204B66
:105070001B7ADBB25B0803F00703012202FA03F399
:105080007B807B881D4AB2FBF3F37B601BE0184BEF
:105090001B78DBB203F0C003802B23D1144B1B7BA6
:1050A000DBB203F00303002B02D0012B03D006E098
:1050B000104B7B6007E04FF400437B6003E00E4B36
:1050C0007B6000E000BF0E4B03F5825304331B6886
:1050D0001B0F03F00F0301337A68B2FBF3F3094AA5
:1050E000136000E000BF0C37BD465DF8047B7047DD
:1050F0000040064080F0FA02006CDC0200093D002E
:10510000007004409804002080B584B000AFF860BF
:10511000B9601346FB71BB681F2B05D90D4B0E4AB6
:10512000FF210E4804F0F0FEFB68BA6853F8223005
:1051300023F0807323F4E063FA79120202F4E06250
:1051400043EA0201FB68BA6843F8221000BF103737
:10515000BD4680BD28CC000068CD000034CC0000E6
:1051600080B483B000AF78600B46FB707B68FA7840
:105170001A7000BF0C37BD465DF8047B7047000015
:1051800080B584B000AF3B4600221A605A609A6036
:10519000DA60064B3B6002237B723B4619460020D7
:1051A00002F076FC00BF1037BD4680BD80F0FA02E9
:1051B00080B584B000AF074A3B1D07CA83E80700EB
:1051C0003B1D1946002002F0AFFC00BF1037BD4662
:1051D00080BD00BF6CCC000080B500AF2A2108481C
:1051E000FFF7BEFF002212210648FFF78DFFFFF7F1
:1051F000C7FFFFF7DDFF044802F0ECFC00BF80BDF5
:1052000000E007400090044050CD000080B582B01F
:1052100000AF02F079FB0023FB7106E0FB79184632
:1052200002F05CFDFB790133FB71FB79042BF5D9AE
:10523000FFF7D2FF00BF0837BD4680BD80B584B000
:1052400000AFF860B9601346FB71BB681F2B05D92E
:105250000D4B0E4AFF210E4804F056FEFB68BA685B
:1052600053F8223023F0807323F4E063FA791202BA
:1052700002F4E06243EA0201FB68BA6843F82210D4
:1052800000BF1037BD4680BD78CC00007CCD00004B
:1052900084CC000080B483B000AF78600B46FB7014
:1052A0007B6803F581530833FA785209D2B2920031
:1052B000134403F1424303F58013DA00FB7803F053
:1052C0001F0313449B001A460123136000BF0C37D1
:1052D000BD465DF8047B704780B584B000AF786050
:1052E00089215D48FFF7D6FF8A215B48FFF7D2FF8F
:1052F0008B215948FFF7CEFF8C215748FFF7CAFF93
:105300008D215548FFF7C6FF7B68032B00F296807E
:1053100001A252F823F000BF295300009B53000064
:10532000C5530000EF5300000023FB600023BB6067
:10533000FB68002B05D1032211214848FFF77EFFAF
:1053400010E0FB68012B05D1032202214448FFF73E
:1053500075FF07E0FB68022B04D1032207214148B7
:10536000FFF76CFFBB68002B05D1032210213B48DF
:10537000FFF764FF64E0BB68012B05D10322012124
:105380003748FFF75BFF5BE0BB68022B58D1032275
:1053900006213448FFF752FF52E00023FB60002350
:1053A000BB60FB68002B04D1032204212E48FFF7C9
:1053B00045FFBB68002B45D1032203212A48FFF794
:1053C0003DFF3FE00023FB600023BB60FB68002B38
:1053D00004D1032203212348FFF730FFBB68002BD1
:1053E00032D1032202211F48FFF728FF2CE00023BF
:1053F000FB600023BB60FB68002B05D10322112159
:105400001948FFF71BFF07E0FB68012B04D10322BB
:105410000B211248FFF712FFBB68002B05D10322B6
:1054200010211148FFF70AFF10E0BB68012B0DD1D6
:1054300003220A210948FFF701FF07E000BF06E049
:1054400000BF04E000BF02E000BF00E000BF00BFFB
:105450001037BD4680BD00BF0070044000A004406E
:105460000090044000C0044000B0044080B500AF8C
:10547000002002F0E7FE00BF80BD80B500AF012034
:1054800002F0E0FE00BF80BD80B500AF022002F058
:10549000D9FE00BF80BD80B500AF032002F0D2FE70
:1054A00000BF80BD80B500AF042002F0CBFE00BF7E
:1054B00080BD80B500AF052002F0C4FE00BF80BDF6
:1054C00080B500AF062002F0BDFE00BF80BD80B5F4
:1054D00000AF072002F0B6FE00BF80BD80B500AF70
:1054E000082002F0AFFE00BF80BD80B500AF0920EC
:1054F00002F0A8FE00BF80BD80B500AF0A2002F018
:10550000A1FE00BF80BD80B500AF0B2002F09AFE67
:1055100000BF80BD80B500AF0C2002F093FE00BF3D
:1055200080BD80B500AF0D2002F08CFE00BF80BDB5
:1055300080B500AF0E2002F085FE00BF80BD80B5B3
:1055400000AF0F2002F07EFE00BF80BD80B500AF2F
:10555000002002F08FFE00BF80BD80B500AF0020AC
:1055600003F052FD00BF80BD80B500AF012003F005
:105570004BFD00BF80BD80B500AF022003F044FDAD
:1055800000BF80BD80B500AF032003F03DFD00BF2C
:1055900080BD80B500AF042003F036FD00BF80BDA4
:1055A00080B500AF052003F02FFD00BF80BD80B4A3
:1055B00000AFFEE780B400AFFEE780B400AFFEE7C7
:1055C00080B400AFFEE780B400AFFEE780B400AF68
:1055D000FEE780B400AFFEE780B400AFFEE780B422
:1055E00000AFFEE780B400AFFEE780B400AFFEE797
:1055F00080B400AFFEE780B400AFFEE780B400AF38
:10560000FEE780B400AFFEE780B400AFFEE780B4F1
:1056100000AFFEE780B400AFFEE780B400AFFEE766
:1056200080B400AFFEE780B400AFFEE780B400AF07
:10563000FEE780B400AFFEE780B400AFFEE780B4C1
:1056400000AFFEE780B400AFFEE780B400AFFEE736
:1056500080B400AFFEE780B400AFFEE780B400AFD7
:10566000FEE780B400AFFEE780B400AFFEE780B491
:1056700000AFFEE780B400AFFEE780B400AFFEE706
:1056800080B400AFFEE780B400AFFEE780B400AFA7
:10569000FEE780B400AFFEE780B400AFFEE780B461
:1056A00000AFFEE780B400AFFEE780B400AFFEE7D6
:1056B00080B400AFFEE780B400AFFEE780B400AF77
:1056C000FEE780B400AFFEE780B400AFFEE780B431
:1056D00000AFFEE780B400AFFEE780B400AFFEE7A6
:1056E00080B400AFFEE780B400AFFEE780B400AF47
:1056F000FEE780B400AFFEE780B400AFFEE780B401
:1057000000AFFEE780B400AFFEE780B400AFFEE775
:1057100080B400AFFEE7000080B584B000AF7860D1
:10572000114B1B68002B02D10F4B104A1A600E4B15
:105730001B68FB600C4B1A687B6813440C4A93424D
:1057400007D904F005FC03460C221A604FF0FF3322
:1057500006E0054B1A687B681344034A1360FB6834
:1057600018461037BD4680BDA81400200000FF1F5A
:105770000000002080B582B000AF7860034800F0E0
:10578000D0F900BF0837BD4680BD00BF9812002089
:1057900090B583B000AF154B154A1A6000237B60AB
:1057A0000DE07A6813469B0013449B00114A1A448B
:1057B00011497B6841F833207B6801337B607B684B
:1057C000002BEEDD0D4B0E4A1C1D13460FCB84E85B
:1057D0000F0000F0FEF80346084A1360094B074A21
:1057E0001A6000BF0C37BD4690BD00BF9812002064
:1057F000AC120020C8120020A0120020D0140020FB
:10580000D0CD00009012002080B588B002AF87EDA7
:10581000010A38600223FB60FFF7BAFF314800F04D
:1058200070F90346BB60304800F06BF90346BB607B
:10583000002300930023FA682C492D4800F0A0F8BB
:105840000346BB6000237B612FE02A497B697A69AC
:1058500041F823207B69DB00274A1344184600F0F7
:1058600050F90346BB607B690133FA68D31A3B6188
:105870003B6913F1020F02DA6FF001033B617A69B1
:1058800013469B0013449B001C4A98187B699B009D
:10589000184A1344009300233A69194900F070F83C
:1058A0000346BB607B6901337B617B69002BCCDDE8
:1058B0000023144A0121144800F0B0F80346BB60ED
:1058C000D7ED017A9FED117A67EE877AFCEEE77AE1
:1058D00017EE901A0C4800F0C8F800BF1837BD4604
:1058E00080BD00BF9812002090120020B533000048
:1058F000AC120020A8120020A0120020C812002024
:105900005533000075570000AC14002000007A44A5
:1059100080B400AFFEE700BF80B483B000AF786012
:105920007B68013B032B0BD801A252F823F000BF88
:1059300041590000415900004159000041590000FF
:1059400000BFFEE7704700BF704700BF0020002186
:1059500004460D46084804F0F5FA04F039FB2046E9
:10596000294600F0C1FB0548002100F079FC00F059
:10597000CFFB04F0F3FA00007D9F0000D0CD0000C3
:1059800080B586B000AFF860B9607A603B60FB68B4
:10599000BA685A60FB687A689A60FB680122DA602C
:1059A0003A68FB681A61FB680433396A184600F0EC
:1059B00057FC0246FB681A60FB681B68002B14BF8B
:1059C00001230023DBB27B617B6918461837BD4693
:1059D00080BD80B500AF00F095FC0346184680BD41
:1059E00080B584B000AF786000F08CFC0346FB60AB
:1059F000F86800F093FC0346BB6000BF1037BD465B
:105A000080BD84B090B400AF07F1080484E80F00B3
:105A100001231846BD4690BC04B0704780B586B0DF
:105A200000AFF8607A603B600B46FB72FB6803F1E5
:105A30000C02FB689A60FB687A685A60FB68043362
:105A4000F97A3A68184600F073FD0246FB681A605E
:105A5000FB681B68002B14BF01230023DBB27B61B2
:105A60007B6918461837BD4680BD80B584B000AF4D
:105A7000786039607B681B683968184600F08CFDD7
:105A80000346FB60FB6818461037BD4680BD84B0F6
:105A900080B582B000AF07F1100C8CE80F003B69B5
:105AA000796A184600F04EFE03467B607B68184614
:105AB0000837BD46BDE8804004B0704784B080B56B
:105AC00000AF07F1080C8CE80F00BB68F9691846B5
:105AD00000F058FE03461846BD46BDE8804004B0BD
:105AE000704780B582B000AF786039607B684FF056
:105AF000FF323968184600F053FE78680837BD4613
:105B000080BD80B485B000AF78607B6801225A60A8
:105B10000123FB60FB6818461437BD465DF8047B23
:105B2000704780B584B002AF78607B681B687A6884
:105B3000526801921A6900920FCBFFF7A8FF034643
:105B400018460837BD4680BD80B584B002AF786086
:105B500039603B681B683A68526801921A69009282
:105B60000FCBFFF7ABFF3B685A687B6811461846BE
:105B7000FFF7B7FF78680837BD4680BD80B483B0B3
:105B800000AF786000BF0C37BD465DF8047B7047FE
:105B900080B582B000AF786000F0B0F9B0EE407A26
:105BA000F0EE607A164B83ED007B00F0D7F9F0EE53
:105BB000407A144BC3ED007A00F01EF9B0EE407A43
:105BC000F0EE607A104B83ED007B00F045F9F0EECB
:105BD000407A0E4BC3ED007A00F04EF9B0EE407AF9
:105BE000F0EE607A0A4B83ED007B00F075F9F0EE81
:105BF000407A084BC3ED007A00BF0837BD4680BD30
:105C0000E0540020F0540020D0540020E85400203C
:105C1000D8540020EC54002080B582B000AF87ED4E
:105C2000000B0D4BD3E90023D7E90001FBF760F926
:105C30000346002B09D1094BD3E90023D7E9000122
:105C4000FBF756F90346002B01D0012300E00023A7
:105C500018460837BD4680BDD0540020D8540020D7
:105C600080B586B000AF87ED000B0023FB754023A5
:105C70003B613B69202B0BD1D7E90001FBF7A0F971
:105C8000034600EE103A00F021F80346FB7515E0DC
:105C9000D7E90023C7E90223FA680B4B13400A4AED
:105CA000934209D1FB68C3F31303002B02D1BB68F5
:105CB000002B01D0012300E00023FB75FB7D18467B
:105CC0001837BD4680BD00BF0000F07F80B485B0AE
:105CD00000AF87ED010A7B68FB60FB6803F0FF43C0
:105CE000B3F1FF4F06D1FB68C3F31603002B01D0BD
:105CF000012300E00023DBB218461437BD465DF8EF
:105D0000047B704780B584B000AF87ED000B97ED42
:105D1000000B03F0DDFE51EC100B4FF00002334B93
:105D2000FBF7F0F80346002B50D04FF00002304B49
